:0400000009EF06F00E
:08000800046ED8CF05F0E0CF33
:1000100006F00001E9CF0CF0EACF07F0E1CF08F0DD
:10002000E2CF09F0D9CF0AF0DACF0BF0F3CF12F01C
:10003000F4CF13F0FACF14F0F5CF15F0F6CF16F099
:10004000F7CF17F000C00EF001C00FF002C010F0A3
:1000500003C011F0F2AA30EF00F0F2B457EF00F055
:100060000EC000F00FC001F010C002F011C003F08C
:100070000CC0E9FF07C0EAFF078E08C0E1FF09C016
:10008000E2FF0AC0D9FF0BC0DAFF12C0F3FF13C0B2
:10009000F4FF14C0FAFF15C0F5FF16C0F6FF17C035
:1000A000F7FF045006C0E0FF05C0D8FF1000D76A74
:1000B0001D0ED66E2C2AF29430EF00F0543D2566CA
:1000C0002056202020202000929489949292899298
:1000D0002E5002081AE19292899200D00000316AF3
:1000E00031500F080EE392948984928680B602D034
:1000F000D89001D0D8802F36303692948994312A06
:10010000EFD792948994929289823030336E2F3057
:10011000326E333232323F0E331632C02FF033504C
:100120000F0B306E2FC001F030C002F023EF06F04D
:100130008E0E006E2FC001F02EC002F0036A015235
:1001400009E102C001F0026A080E005E015202E1FC
:10015000006A08D0D89001BE04D0023601360006ED
:10016000F9D7019E2DEF06F03B50D8B471D0006E48
:100170003F50D8B46DD0002604E3810E002668E21B
:1001800004D07F0E005E64E363E03CC043F0405067
:10019000431A3C8E408E3E504202F4CF45F03D5013
:1001A0004102F4CF03F0F3CF44F04202F35045266E
:1001B000F4504422000E03223E504102F3504526E3
:1001C000F4504422000E026A032202223C504202F2
:1001D000F3504426F4500322000E02223C50410208
:1001E000F3500326F4500222000E016A01223E5011
:1001F0004002F3504426F4500322000E0222012252
:100200003D504002F3500326F4500222000E01221A
:100210003C504002F3500226F4500122002A01BE55
:1002200005D044360336023601360006000E44AED1
:100230000AD0032A02220122015005E1025003E103
:10024000035001E1002A43BE018E43AE019E04D05B
:10025000006A016A026A036A12004050D8B4A5D04D
:100260004C6E4450D8B4A1D04C5E05E37F0E4C26B2
:10027000D8B09BD006D0810E4C5ED8A096D0D8B412
:1002800094D04CC000F0016A026A036A4B6A41C014
:100290004AF04A8E42C049F043C048F0190E4C6EF5
:1002A0004750485E0DE2010E495E0AE24A5E08E2EE
:1002B0004B5E06E24B2A4A2A492A4750482628D054
:1002C0004650495E12E2010E4A5E0FE24B5E0DE2BD
:1002D0004B2A4A2A465049264750482619E3492ABC
:1002E00017E14A2A15E14B2A13D0455080094A5E8E
:1002F0000EE2010E4B5E0BE24B2A455080094A2666
:1003000046504926E9E34A2AE7E14B2AE5D703802C
:100310004C2E01D00BD0D890483649364A364B3651
:10032000D8900336023601364D36BAD74DA006D0E6
:10033000D8900132023203324D3202D0000635E04D
:100340004DBE1ED0D890483649364A364B364750B7
:10035000485E07E2010E495E04E24A5E02E24B5E3D
:100360001AE34650495E05E2010E4A5E02E24B5E28
:1003700012E3455080094A5E03E2010E4B5E0BE337
:10038000032A09E1022A07E1012A05E1002A0DE01A
:1003900001320232033241C04CF045504C1A4CAE8F
:1003A00002D0018E06D0019E04D0006A016A026A62
:1003B000036A1200800ED8B2451A4A6A4B6A41C0DD
:1003C00049F04550491A4050D8B4DCD0486E006E10
:1003D0004450D8B4E0D0485ED8B481D03DE345C0A5
:1003E0004EF04E8E46C04DF047C04CF04B6AD89050
:1003F0004E324D324C324B32482EF8D749AE03D0F4
:100400004A80DDD04A9048904A88EA6A430EE96EF5
:10041000E9D04A9849BE0AD048A013D04E324D3296
:100420004C324B32002AD8B4C5D00BD04EBE0CD0C3
:10043000D8904B364C364D364E360006D8B4BAD02E
:10044000F5D74A8C6BD04A9C41C049F041AE02D0EE
:100450004E8EA9D04E9EA7D044C048F044C000F0B4
:100460004050485E41C04EF04E8E42C04DF043C0F9
:100470004CF04B6AD8904E324D324C324B32482EB3
:10048000F8D749AE03D04A829AD04A9248904A8A15
:10049000EA6A470EE96EA6D04A9A49BE0AD048A039
:1004A00013D04E324D324C324B32002AD8B482D067
:1004B0000BD04EBE0CD0D8904B364C364D364E3607
:1004C0000006D8B477D0F5D74A8E28D04A9E45C0CA
:1004D00049F045AE02D04E8E66D04E9E64D045C0E7
:1004E0004EF04E8E46C04DF047C04CF049AE04D0A1
:1004F0004E9E4A8464D04A944B6A4890EA6A430EFE
:10050000E96E70D049BE1CD041C049F048A006D069
:100510004E324D324C324B32002A4CE04BAE0BD0B7
:100520004C2A09E14D2A07E14E2A05E14E324D32AF
:100530004C32002A3FE04ABC86D74ABEC7D71CD0FF
:10054000800E4E1A4EAE04D03AD045C049F00AD0C3
:1005500041C049F04E5206E14D5204E14C5202E1D5
:10056000006A21D04EBE08D0D8904B364C364D365E
:100570004E36002EF7D71ED049AE02D04E8E13D085
:100580004E9E11D044C000F045C04EF046C04DF024
:1005900047C04CF008D040C000F041C04EF042C00F
:1005A0004DF043C04CF04EC001F04DC002F04CC0C5
:1005B00003F034D0006A016A026A036A2FD04B6AE2
:1005C0004C1E4D1E4E1E4B1E4B2A05E14C2A03E1CC
:1005D0004D2A01E14E2A4AB015D74AB256D74AB43D
:1005E0008AD7B3D7EF504C2605E34D2A03E14E2AB4
:1005F000D8B44880ED52EF504D2603E34E2AD8B4CC
:100600004880ED52EF50EFBE01D0800A4E26D8B0A0
:1006100048804AB8FED64ABA3FD774D7120041C0C4
:1006200048F04550481A48AE05D0D894D89041BEFD
:10063000D8802FD041C048F044C049F04050495EB6
:1006400006E048AE26D0D850010AD86E22D045C068
:1006500049F04150495E06E048AE1BD0D850010A2F
:10066000D86E17D046C049F04250495E06E048AE09
:1006700010D0D850010AD86E0CD047C049F0435072
:10068000495E06E048AE05D0D850010AD86E01D0C8
:10069000D890120035C043F034C042F033C041F06E
:1006A00032C040F0476A466A456A446AB8DF01E2F0
:1006B00005E1006A016A026A036A70D035C039F048
:1006C00034C038F033C037F032C036F03F6A360EEF
:1006D0003E6E3EC0E9FF3FC0EAFFEF50436A426E04
:1006E0007F0E4226000E4322D890433042303FC056
:1006F000EAFF3EC0E9FFEF6E39C03DF038C03CF084
:1007000037C03BF036C03AF035C043F034C042F059
:1007100033C041F032C040F039C047F038C046F035
:1007200037C045F036C044F098DDD89239C043F068
:1007300038C042F037C041F036C040F003C047F047
:1007400002C046F001C045F000C044F033DE03C0F3
:1007500039F002C038F001C037F000C036F03EC0BA
:10076000E9FF3FC0EAFFEF063DC043F03CC042F066
:100770003BC041F03AC040F039C047F038C046F0C5
:1007800037C045F036C044F04ADFB6E13AC000F069
:100790003BC001F03CC002F03DC003F0B8EF06F0F2
:1007A000080E016E020E006E002EFED78C9E959EE6
:1007B000020E006E002EFED741368C9CD8B0958C70
:1007C000D8A0959C958E83AEFED7012EEBD7020E56
:1007D000006E002EFED78C9E959E0000958C020E1A
:1007E000006E002EFED7020E006E002EFED7958EF4
:1007F00083AEFED7016A020E006E002EFED783BCC8
:1008000001808C9E959E8C9C959C1200958C020E6E
:10081000006E002EFED7958E020E006E002EFED7C3
:100820008C9C959C020E006E002EFED78C9E959E91
:10083000130E006E002EFED700D04E0E416EB0DFBC
:10084000130E006E002EFED700D040C041F0A8DF8E
:10085000130E006E002EFED700D0959C0000958EE2
:1008600083AEFED7020E006E002EFED700D0000031
:10087000958C020E006E002EFED7130E006E002E19
:10088000FED700D0120020A005D03F50040908096F
:100890003F6E01D03F843FC040F0B8DF040E3F5EA2
:1008A0003FC040F0B3DF12003E50010A07E0030AE8
:1008B00008E0010A09E0070A0AE00CD0800E1F6E6A
:1008C0000BD0C00E1F6E08D0940E1F6E05D0D40E34
:1008D0001F6E02D0800E1F6E010E3D5C1F261F5042
:1008E000F00B216E21C03FF0CEDF1F500F0B216EA9
:1008F000213AF00E211621C03FF0C5DF1200EA6A4E
:100900003D0EE96EEF500EE0030E016E006A002E00
:10091000FED7012EFBD7E30E006E002EFED700009F
:10092000EF2EF2D712003F6AAEDF100E3F6EABDF44
:10093000020E3D6EE4DFD3EF04F03B500C0A09E0F9
:100940000D0A09E0030A0CE0010A10E0070A14E0AE
:1009500019D0E9D728D0010E3D6E3E6EA5DF23D019
:10096000010E3D6E020E3E6E9FDF1DD0010E3D6EEC
:10097000030E3E6E99DF17D0010E3D6E040E3E6EE3
:1009800093DF11D03B50F00B3C6E3C803CC03FF0FD
:100990007ADF3B500F0B3C6E3C3AF00E3C163C802D
:1009A0003CC03FF070DF12003B50B6083B6E036A5C
:1009B0003CC03FF03C8ED8903C323D323E32033258
:1009C0000232013200323B2EF6D73FAE0BD0001E72
:1009D000011E021E031E002AD8B4012AD8B4022A1E
:1009E000D8B4032A63EF05F0D8B203D0EA6A430E05
:1009F000E96E006A016A026A036A436A446A456AE8
:100A0000466A4250411040103F102CE0200E476EC5
:100A1000D8903B363C363D363E3643364436453636
:100A200046364250465C08E14150455C05E1405085
:100A3000445C02E13F50435C0FE33F50435E405053
:100A4000D8A0403C445E4150D8A0413C455E425055
:100A5000D8A0423C465ED8800036013602360336C6
:100A6000472ED6D743C0EFFF44C0ECFF45C0ECFF94
:100A700046C0ECFF1200E950336E3250356E1AE07A
:100A800031C03EF030C03DF02FC03CF02EC03BF0F6
:100A9000426A416A200E406E820E3F6EB4EC00F056
:100AA00003C031F002C030F001C02FF000C02EF0C2
:100AB000352EE6D731C03EF030C03DF02FC03CF0BF
:100AC0002EC03BF071D703C031F002C030F001C03E
:100AD0002FF000C02EF031AE0DD03306338A2E1E1B
:100AE0002F1E301E311E2E2AD8B42F2AD8B4302AF9
:100AF000D8B4312A3B0E3A6E9A0E396ECA0E386E51
:100B0000376A0A0E356E3250D8B4332AD882EA6A70
:100B10002E0EE96E31C03EF030C03DF02FC03CF0EB
:100B20002EC03BF03AC042F039C041F038C040F02E
:100B300037C03FF059DF015000520FE13228355CD9
:100B40000CE033500CE00F0B355C01E037E233BEB4
:100B500035D033BC04D0200E2DD0200E331633AA4E
:100B60000CD0339A3250D8A433060050336E2D0E79
:100B70003B6EE3DE3350006E336A3250355C0AE17F
:100B80000050336E2E0E3B6ED8DE3350006E200EBA
:100B90003316000E300E33AA0DD0339A3250D8A43B
:100BA00033060050336E2D0E3B6EC7DE3350006EA1
:100BB000336A300E002600C03BF0BFDED8923AC048
:100BC0003EF039C03DF038C03CF037C03BF0426ADF
:100BD000416A406A0A0E3F6E07DF03C03AF002C066
:100BE00039F001C038F000C037F0352E8FD7D7EF7D
:100BF00006F00900F6CF2FF0F7CF30F0F5CF3BF03D
:100C00009CDE2FC0F6FF30C0F7FF2E2EF2D7DEEFAE
:100C100006F0F86AD09E078E2080010E2C6EC1501F
:100C2000C00B0F09C16E070EB46E196A1A6A216AE9
:100C3000F90E926E2D503B0877E32C2C75D0020EE6
:100C40002E6E64EF00F002C023F001C022F023C03A
:100C50002FF022C02EF098EF00F003C027F002C062
:100C600026F001C025F000C024F027C03EF026C0C9
:100C70003DF025C03CF024C03BF0426A416A200EA2
:100C8000406E810E3F6EB4EC00F003C031F002C044
:100C900030F001C02FF000C02EF003C043F002C0BE
:100CA00042F001C041F000C040F0476A466A456A20
:100CB0008B0E446E2DEC01F003C027F002C026F02D
:100CC00001C025F000C024F027C03EF026C03DF052
:100CD00025C03CF024C03BF027C042F026C041F0C4
:100CE00025C040F024C03FF0B4EC00F0D8922BC0F7
:100CF00043F02AC042F029C041F028C040F003C0B0
:100D000047F002C046F001C045F000C044F0DAEC04
:100D100001F003C02BF002C02AF001C029F000C08E
:100D200028F02D2A2C6A86D72D503C084BE12BC089
:100D300043F02AC042F029C041F028C040F0476A81
:100D4000466A700E456E840E446E2DEC01F003C0B1
:100D500031F002C030F001C02FF000C02EF003C00F
:100D600035F002C034F001C033F000C032F092D44C
:100D700003C02BF002C02AF001C029F000C028F007
:100D8000010E3D6E3E6E90DD540E3B6ED6DD3D0E87
:100D90003B6ED3DD890EE96E2BC031F02AC030F0F6
:100DA00029C02FF028C02EF0020E326E64D6C00E7D
:100DB000F66E000EF76E070E2E6E1BD7280E3D6ED8
:060DC0009EDD2D6A030018
:020000040030CA
:0E000000024C3E1E0087A1000FC00FE00F4013
:00000001FF
;PIC18F4550
;CRC=B75A  CREATED="26-sep-16 11:07"
