:0400000054EF06F0C3
:08000800046ED8CF05F0E0CF33
:1000100006F00001E9CF0CF0EACF07F0E1CF08F0DD
:10002000E2CF09F0D9CF0AF0DACF0BF0F3CF12F01C
:10003000F4CF13F0FACF14F0F5CF15F0F6CF16F099
:10004000F7CF17F000C00EF001C00FF002C010F0A3
:1000500003C011F0F2AA30EF00F0F2B457EF00F055
:100060000EC000F00FC001F010C002F011C003F08C
:100070000CC0E9FF07C0EAFF078E08C0E1FF09C016
:10008000E2FF0AC0D9FF0BC0DAFF12C0F3FF13C0B2
:10009000F4FF14C0FAFF15C0F5FF16C0F6FF17C035
:1000A000F7FF045006C0E0FF05C0D8FF1000FD0EAA
:1000B000D76E2D0ED66E010E2C6EF29430EF00F03E
:1000C000707275656274656E73696F6E2000543D61
:1000D00025662056202020202000EA6A3F0EE96E87
:1000E000EF500EE0030E016E006A002EFED7012EC7
:1000F000FBD7E30E006E002EFED70000EF2EF2D7E6
:100100001200080E016E020E006E002EFED78C9EAD
:10011000959E020E006E002EFED743368C9CD8B002
:10012000958CD8A0959C958E83AEFED7012EEBD7EB
:10013000020E006E002EFED78C9E959E0000958CC0
:10014000020E006E002EFED7020E006E002EFED7AD
:10015000958E83AEFED7016A020E006E002EFED78A
:1001600083BC01808C9E959E8C9C959C1200958CE6
:10017000020E006E002EFED7958E020E006E002E2F
:10018000FED78C9C959C020E006E002EFED78C9E96
:10019000959E130E006E002EFED700D04E0E436EBD
:1001A000B0DF130E006E002EFED700D042C043F029
:1001B000A8DF130E006E002EFED700D0959C000025
:1001C000958E83AEFED7020E006E002EFED700D0B5
:1001D0000000958C020E006E002EFED7130E006EEE
:1001E000002EFED700D0120020A005D041500409F7
:1001F0000809416E01D0418441C042F0B8DF040ECD
:10020000415E41C042F0B3DF1200416AEDDF100EE3
:10021000416EEADF020E3F6E60DF1200C80E3F6ED5
:100220005CDF416AE1DF100E416EDEDF416ADCDF38
:10023000416ADADF100E416ED7DF300E416ED4DF37
:10024000300E416ED1DF300E416ECEDF200E416E9A
:10025000CBDF200E416EC8DF800E416EC5DF416AE4
:10026000C3DFC00E416EC0DF416ABEDF600E416E6B
:10027000BBDFCBDF75EF06F04050010A07E0030A51
:1002800008E0010A09E0070A0AE00CD0800E1F6EA0
:100290000BD0C00E1F6E08D0940E1F6E05D0D40E6A
:1002A0001F6E02D0800E1F6E010E3F5C1F261F5076
:1002B000F00B216E21C041F097DF1F500F0B216E14
:1002C000213AF00E211621C041F08EDF12003D5080
:1002D0000C0A09E00D0A09E0030A0CE0010A10E02B
:1002E000070A14E019D091DF28D0010E3F6E406E4E
:1002F000C3DF23D0010E3F6E020E406EBDDF1DD066
:10030000010E3F6E030E406EB7DF17D0010E3F6E39
:10031000040E406EB1DF11D03D50F00B3E6E3E80BA
:100320003EC041F061DF3D500F0B3E6E3E3AF00E95
:100330003E163E803EC041F057DF12000900F552E4
:100340000CE0F6CF30F0F7CF31F0F5CF3DF0BFDF66
:1003500030C0F6FF31C0F7FFF1D780EF06F092947E
:10036000899492928992305002081AE1929289926D
:1003700000D00000336A33500F080EE39294898452
:10038000928680B602D0D89001D0D88031363236ED
:1003900092948994332AEFD7929489949292898285
:1003A0003230356E3130346E353234323F0E3516E0
:1003B00034C031F035500F0B326E31C001F032C015
:1003C00002F08BEF06F08E0E006E31C001F030C0EF
:1003D00002F0036A015209E102C001F0026A080E4C
:1003E000005E015202E1006A08D0D89001BE04D03C
:1003F000023601360006F9D7019E95EF06F042500D
:10040000D8B4A5D04E6E4650D8B4A1D04E5E05E308
:100410007F0E4E26D8B09BD006D0810E4E5ED8A05F
:1004200096D0D8B494D04EC000F0016A026A036A34
:100430004D6A43C04CF04C8E44C04BF045C04AF06E
:10044000190E4E6E49504A5E0DE2010E4B5E0AE2F5
:100450004C5E08E24D5E06E24D2A4C2A4B2A49507A
:100460004A2628D048504B5E12E2010E4C5E0FE245
:100470004D5E0DE24D2A4C2A48504B2649504A26E3
:1004800019E34B2A17E14C2A15E14D2A13D04750A6
:1004900080094C5E0EE2010E4D5E0BE24D2A475084
:1004A00080094C2648504B26E9E34C2AE7E14D2AC7
:1004B000E5D703804E2E01D00BD0D8904A364B366C
:1004C0004C364D36D8900336023601364F36BAD701
:1004D0004FA006D0D8900132023203324F3202D000
:1004E000000635E04FBE1ED0D8904A364B364C360B
:1004F0004D3649504A5E07E2010E4B5E04E24C5E07
:1005000002E24D5E1AE348504B5E05E2010E4C5E7E
:1005100002E24D5E12E3475080094C5E03E2010E99
:100520004D5E0BE3032A09E1022A07E1012A05E1F6
:10053000002A0DE001320232033243C04EF0475030
:100540004E1A4EAE02D0018E06D0019E04D0006A33
:10055000016A026A036A1200800ED8B2471A4C6A16
:100560004D6A43C04BF047504B1A4250D8B4DCD0D0
:100570004A6E006E4650D8B4E0D04A5ED8B481D0FE
:100580003DE347C050F0508E48C04FF049C04EF098
:100590004D6AD89050324F324E324D324A2EF8D7F3
:1005A0004BAE03D04C80DDD04C904A904C88EA6A28
:1005B000450EE96EE9D04C984BBE0AD04AA013D044
:1005C00050324F324E324D32002AD8B4C5D00BD003
:1005D00050BE0CD0D8904D364E364F3650360006B1
:1005E000D8B4BAD0F5D74C8C6BD04C9C43C04BF0F0
:1005F00043AE02D0508EA9D0509EA7D046C04AF03C
:1006000046C000F042504A5E43C050F0508E44C095
:100610004FF045C04EF04D6AD89050324F324E32B6
:100620004D324A2EF8D74BAE03D04C829AD04C9222
:100630004A904C8AEA6A490EE96EA6D04C9A4BBEA3
:100640000AD04AA013D050324F324E324D32002AD7
:10065000D8B482D00BD050BE0CD0D8904D364E3688
:100660004F3650360006D8B477D0F5D74C8E28D008
:100670004C9E47C04BF047AE02D0508E66D0509E85
:1006800064D047C050F0508E48C04FF049C04EF083
:100690004BAE04D0509E4C8464D04C944D6A4A902A
:1006A000EA6A450EE96E70D04BBE1CD043C04BF0D9
:1006B0004AA006D050324F324E324D32002A4CE022
:1006C0004DAE0BD04E2A09E14F2A07E1502A05E131
:1006D00050324F324E32002A3FE04CBC86D74CBEDF
:1006E000C7D71CD0800E501A50AE04D03AD047C0A5
:1006F0004BF00AD043C04BF0505206E14F5204E198
:100700004E5202E1006A21D050BE08D0D8904D363A
:100710004E364F365036002EF7D71ED04BAE02D095
:10072000508E13D0509E11D046C000F047C050F0FC
:1007300048C04FF049C04EF008D042C000F043C05E
:1007400050F044C04FF045C04EF050C001F04FC0D3
:1007500002F04EC003F034D0006A016A026A036AF4
:100760002FD04D6A4E1E4F1E501E4D1E4D2A05E1C4
:100770004E2A03E14F2A01E1502A4CB015D74CB262
:1007800056D74CB48AD7B3D7EF504E2605E34F2A3D
:1007900003E1502AD8B44A80ED52EF504F2603E3CC
:1007A000502AD8B44A80ED52EF50EFBE01D0800AF3
:1007B0005026D8B04A804CB8FED64CBA3FD774D732
:1007C00012003D50D8B471D0006E4150D8B46DD0F5
:1007D000002604E3810E002668E204D07F0E005E4E
:1007E00064E363E03EC045F04250451A3E8E428EBF
:1007F00040504402F4CF47F03F504302F4CF03F09F
:10080000F3CF46F04402F3504726F4504622000E40
:10081000032240504302F3504726F4504622000E74
:10082000026A032202223E504402F3504626F4504C
:100830000322000E02223E504302F3500326F450DE
:100840000222000E016A012240504202F350462665
:10085000F4500322000E022201223F504202F350C4
:100860000326F4500222000E01223E504202F350B1
:100870000226F4500122002A01BE05D04636033676
:10088000023601360006000E46AE0AD0032A0222C6
:100890000122015005E1025003E1035001E1002A69
:1008A00045BE018E45AE019E04D0006A016A026A0F
:1008B000036A120043C04AF047504A1A4AAE05D0B4
:1008C000D894D89043BED8802FD043C04AF046C0B9
:1008D0004BF042504B5E06E04AAE26D0D850010A9B
:1008E000D86E22D047C04BF043504B5E06E04AAE74
:1008F0001BD0D850010AD86E17D048C04BF04450D6
:100900004B5E06E04AAE10D0D850010AD86E0CD02B
:1009100049C04BF045504B5E06E04AAE05D0D8507A
:10092000010AD86E01D0D890120037C045F036C009
:1009300044F035C043F034C042F0496A486A476A1F
:10094000466AB8DF01E205E1006A016A026A036AE9
:1009500070D037C03BF036C03AF035C039F034C003
:1009600038F0416A380E406E40C0E9FF41C0EAFFEE
:10097000EF50456A446E7F0E4426000E4522D89003
:100980004530443041C0EAFF40C0E9FFEF6E3BC054
:100990003FF03AC03EF039C03DF038C03CF037C0BF
:1009A00045F036C044F035C043F034C042F03BC09F
:1009B00049F03AC048F039C047F038C046F01FDD72
:1009C000D8923BC045F03AC044F039C043F038C03B
:1009D00042F003C049F002C048F001C047F000C037
:1009E00046F0BADD03C03BF002C03AF001C039F076
:1009F00000C038F040C0E9FF41C0EAFFEF063FC049
:100A000045F03EC044F03DC043F03CC042F03BC026
:100A100049F03AC048F039C047F038C046F04ADFE4
:100A2000B6E13CC000F03DC001F03EC002F03FC066
:100A300003F022EF07F03D50B6083D6E036A3EC05A
:100A400041F03E8ED8903E323F3240320332023285
:100A5000013200323D2EF6D741AE0BD0001E011EF2
:100A6000021E031E002AD8B4012AD8B4022AD8B420
:100A7000032AA9EF05F0D8B203D0EA6A450EE96E61
:100A8000006A016A026A036A456A466A476A486AF6
:100A900044504310421041102CE0200E496ED89073
:100AA0003D363E363F364036453646364736483682
:100AB0004450485C08E14350475C05E14250465CC5
:100AC00002E14150455C0FE34150455E4250D8A0E1
:100AD000423C465E4350D8A0433C475E4450D8A0B9
:100AE000443C485ED8800036013602360336492E33
:100AF000D6D745C0EFFF46C0ECFF47C0ECFF48C06B
:100B0000ECFF1200E950356E3450376E19E033C0F7
:100B100040F032C03FF031C03EF030C03DF0446A9A
:100B2000436A200E426E820E416E4BDE03C033F0EC
:100B300002C032F001C031F000C030F0372EE7D7EC
:100B400033C040F032C03FF031C03EF030C03DF025
:100B500072D703C033F002C032F001C031F000C0E0
:100B600030F033AE0DD03506358A301E311E321EC0
:100B7000331E302AD8B4312AD8B4322AD8B4332A12
:100B80003B0E3C6E9A0E3B6ECA0E3A6E396A0A0EE6
:100B9000376E3450D8B4352AD882EA6A300EE96EFE
:100BA00033C040F032C03FF031C03EF030C03DF0C5
:100BB0003CC044F03BC043F03AC042F039C041F081
:100BC0005ADF015000520FE13428375C0CE03550F9
:100BD0000CE00F0B375C01E03BE235BE39D035BC91
:100BE00004D0200E30D0200E351635AA0DD0359AFF
:100BF0003450D8A435060050356E2D0E3D6E67EC8E
:100C000001F03550006E356A3450375C0BE100500E
:100C1000356E2E0E3D6E67EC01F03550006E200EE5
:100C20003516000E300E35AA0ED0359A3450D8A4A1
:100C300035060050356E2D0E3D6E67EC01F03550D7
:100C4000006E356A300E002600C03DF067EC01F002
:100C5000D8923CC040F03BC03FF03AC03EF039C0B3
:100C60003DF0446A436A426A0A0E416E04DF03C0E3
:100C70003CF002C03BF001C03AF000C039F0372E22
:100C80008BD745EF07F00900F6CF31F0F7CF32F000
:100C9000F5CF3DF067EC01F031C0F6FF32C0F7FF51
:100CA000302EF1D74CEF07F0F86AD09E078E2080E7
:100CB0002B6A2A6A296A286A010E2C6E2D6A2F6A0D
:100CC0002E6AC150C00B0F09C16E070EB46E196AAF
:100CD0001A6A216A800ED56EF28AC00EF212FD0EDB
:100CE000D76E2D0ED66E0EEF01F0010E3F6E406EE8
:100CF0003CEC01F0C00EF66E000EF76E9EEF01F0B8
:100D0000F90E926E2D503B0879E32C2C77D0020E11
:100D1000306EAFEF01F002C023F001C022F023C01B
:100D200031F022C030F0E3EF01F003C027F002C041
:100D300026F001C025F000C024F027C045F026C0F1
:100D400044F025C043F024C042F0496A486A7A0E54
:100D5000476E880E466EFFEC01F003C033F002C010
:100D600032F001C031F000C030F0D88203C045F04D
:100D700002C044F001C043F000C042F05C0E496E76
:100D80008F0E486E220E476E800E466EACEC02F05F
:100D900003C027F002C026F001C025F000C024F0F7
:100DA00027C040F026C03FF025C03EF024C03DF0F3
:100DB00027C044F026C043F025C042F024C041F0D3
:100DC00000DDD8922BC045F02AC044F029C043F082
:100DD00028C042F003C049F002C048F001C047F00B
:100DE00000C046F0ACEC02F003C02BF002C02AF0C9
:100DF00001C029F000C028F02D2A2C6A2D503C0893
:100E000054E12BC045F02AC044F029C043F028C06B
:100E100042F0496A486A700E476E840E466EFFECD7
:100E200001F003C033F002C032F001C031F000C065
:100E300030F003C037F002C036F001C035F000C01A
:100E400034F073D503C02BF002C02AF001C029F0A2
:100E500000C028F0010E3F6E020E406E3CEC01F027
:100E6000540E3D6E67EC01F03D0E3D6E67EC01F0F7
:100E7000890EE96E2BC033F02AC032F029C031F060
:100E800028C030F0020E346E3DD6D20EF66E000E43
:100E9000F76E070E306EF7D6040E306EFA0E3F6E08
:0E0EA0006DEC00F0302EFAD72D6A2CD703002F
:020000040030CA
:0E000000024C3E1E0087A1000FC00FE00F4013
:00000001FF
;PIC18F4550
;CRC=65C2  CREATED="02-oct-16 16:42"
